:100000000C9431010C9462010C9462010C94620115
:100010000C9462010C9462010C9462010C946201D4
:100020000C9462010C9462010C9462010C946201C4
:100030000C9462010C9462010C9462010C946201B4
:100040000C9462010C9462010C9462010C946201A4
:100050000C9462010C9462010C9462010C942206CF
:100060000C9462010C94EC050C94C2050C94620192
:100070000C9462010C9462010C9462010C94620174
:100080000C9462010C9462010C9462010C94620164
:100090000C9462010C9462010C9462010C946C0645
:1000A0000C9462010C9462010C9462010C94620144
:1000B0000C9462010C9462010C9462010C94620134
:1000C0000C9462010C9462010C9462010C94620124
:1000D0000C9462010C9462010C9462010C94620114
:1000E0000C9462010C9412030C940E030C94E40320
:1000F0000C947D030C94A2010C94C4010C94FA029C
:100100000C9400030C94B6010C94CA020C94F403F2
:100110000C94E5020C94FC010C9404030C94070469
:100120000C941C030C9493010C94E5030C94200391
:100130000C9449020C9490070C94F0020C94160352
:100140000C94E9020C9408030C9465010C940E04C1
:100150000C9466010C943B040C9484050C94E1020D
:100160000C9451050C94CF020C94ED020C94640194
:100170000C94F60200002200250028002B002E001F
:100180003100340002010000050108010B010505E2
:100190000505070508080808020202020A0A0808FD
:1001A000040404040101010101010101030303032B
:1001B00003030303040707070C0C0C0C0C0C0C0CBA
:1001C0000202020206060606060606060B0B0B0BCB
:1001D0000B0B0B0B010210202008081020401020F0
:1001E00040800201020108040201010204081020FB
:1001F00040808040201008040201800402018040F9
:100200002010080402010804020101020408102061
:100210004080010204081020408000000A0B0209FF
:100220000C0D0E0807030401000000000000000090
:1002300000000000000000000000000000000000BE
:10024000000000000000121110000000000000007B
:10025000000000000000000000000000000000009E
:10026000900711241FBECFEFD1E2DEBFCDBF00E06B
:100270000CBF23E0ACE3B2E001C01D92A83BB20783
:10028000E1F712E0A0E0B2E0E0EDF6E100E00BBF44
:1002900002C007900D92AC33B107D9F711E0C1E36A
:1002A000D1E000E006C021970109802FFE010E94E5
:1002B0004809C033D10780E00807A9F70E94D80792
:1002C0000C94660B0C94000008950895AF92BF92B1
:1002D000CF92DF92EF92FF920F931F93CF93DF9312
:1002E0006C017B018B01040F151FEB015E01AE1841
:1002F000BF08C017D10759F06991D601ED91FC9163
:100300000190F081E02DC6011995892B79F7C5017F
:10031000DF91CF911F910F91FF90EF90DF90CF90E1
:10032000BF90AF900895FC01538D448D252F30E090
:10033000842F90E0821B930B541710F0CF960895F2
:1003400001970895FC01918D828D981761F0A28D1F
:10035000AE0FBF2FB11D5D968C91928D9F5F9F73E5
:10036000928F90E008958FEF9FEF0895FC01918D9B
:10037000828D981731F0828DE80FF11D858D90E008
:1003800008958FEF9FEF0895FC01918D228D892FA5
:1003900090E0805C9F4F821B91098F73992708958D
:1003A0008FEF92E00E94C40121E0892B09F420E044
:1003B000822F0895FC01A48DA80FB92FB11DA35A57
:1003C000BF4F2C91848D90E001968F739927848F75
:1003D000A689B7892C93A089B1898C918370806498
:1003E0008C93938D848D981306C00288F389E02D39
:1003F00080818F7D80830895EF92FF920F931F93EA
:10040000CF93DF93EC0181E0888F9B8D8C8D9813C7
:100410001AC0E889F989808185FF15C09FB7F894D3
:10042000EE89FF896083E889F9898081837080641F
:1004300080839FBF81E090E0DF91CF911F910F916A
:10044000FF90EF900895F62E0B8D10E00F5F1F4F79
:100450000F731127E02E8C8D8E110CC00FB607FC88
:10046000FACFE889F989808185FFF5CFCE010E9416
:10047000DA01F1CFEB8DEC0FFD2FF11DE35AFF4FA9
:10048000F0829FB7F8940B8FEA89FB8980818062A4
:10049000CFCFCF93DF93EC01888D8823B9F0AA8961
:1004A000BB89E889F9898C9185FD03C0808186FD2F
:1004B0000DC00FB607FCF7CF8C9185FFF2CF80817E
:1004C00085FFEDCFCE010E94DA01E9CFDF91CF9118
:1004D000089580E090E0892B29F00E94D0018111DD
:1004E0000E94000080E090E0892B49F080E090E0DD
:1004F000892B29F00E94000081110E94000080E0F9
:1005000090E0892B49F080E090E0892B29F00E944F
:10051000000081110E94000080E090E0892B49F0EA
:1005200080E090E0892B29F00E94000081110C945A
:1005300000000895282F30E0F901E65EFD4F949108
:10054000F901EC52FE4F449122573E4FF90124919C
:10055000222309F435C0992311F191509231F8F416
:10056000E92FF0E08827E854FD4F8F4F0C9448099D
:10057000E902ED02CA02E102E502CF02F002F60250
:10058000FA020003040308030E031203CF0216034A
:100590001C032003809180008F7780938000E22FDE
:1005A000F0E0EE0FFF1FEC58FE4FA591B4918FB70E
:1005B000F894EC91611148C040954E234C938FBF45
:1005C0000895809180008F7DE8CF80918000877FA3
:1005D000E4CF84B58F7784BDE2CF84B58F7DFBCF28
:1005E0008091B0008F778093B000D9CF8091B00018
:1005F0008F7DF9CF809190008F7780939000CFCF3F
:10060000809190008F7DF9CF80919000877FF5CF0A
:100610008091A0008F778093A000C1CF8091A0002F
:100620008F7DF9CF8091A000877FF5CF8091200149
:100630008F7780932001B3CF809120018F7DF9CFF8
:1006400080912001877FF5CF4E2BB8CF3FB7F8942C
:100650008091F3029091F402A091F502B091F6021C
:1006600026B5A89B05C02F3F19F00196A11DB11D0D
:100670003FBFBA2FA92F982F8827BC01CD01620F49
:10068000711D811D911D42E0660F771F881F991F04
:100690004A95D1F708958F929F92AF92BF92CF92D1
:1006A000DF92EF92FF924B015C010E9426036B01E7
:1006B0007C010E9426036C197D098E099F09683E02
:1006C000734081059105A8F321E0821A9108A108E1
:1006D000B10888EEC80E83E0D81EE11CF11C81141D
:1006E0009104A104B10429F7FF90EF90DF90CF901F
:1006F000BF90AF909F908F900895089520917D02B4
:10070000260F3327331F21323105ECF42091C60226
:10071000FC0190E080E0243069F082E00895A0912F
:100720007D022191AC01435A5D4FA40FB52FB11D3D
:100730002C930196861798F380917D02680F609341
:100740007D0280E0089581E008951092C60281E064
:100750008093C5021092A00261E084E10E949A0297
:1007600061E085E10E949A02E9EBF0E080818E7FF2
:10077000808380818D7F808388E48093B80085E4C6
:100780008093BC000895CF93DF9391E090935C0237
:100790008823B9F0C091B800D091BA008091BC0014
:1007A0008A7B8093BC0060E084E10E949A0260E052
:1007B00085E10E949A020E94A503D093BA00C093DB
:1007C000B800DF91CF9108950895E091FE028091E5
:1007D000FD02E81730F4F0E0E45CFD4F808190E02A
:1007E00008958FEF9FEF08959091FE028091FD0292
:1007F0002FEF3FEF981748F4E92FF0E0E45CFD4F4E
:10080000208130E09F5F9093FE02C901089580919E
:10081000FD029091FE02891B990B0895CF92DF9201
:10082000EF92FF920F931F93CF93DF937C01CB0145
:100830008A012091CC02222389F0EB016B01C40EC6
:10084000D51ECC15DD0569F06991D701ED91FC91BC
:100850000190F081E02DC7011995F3CF642F0E941C
:100860007E03C801DF91CF911F910F91FF90EF9010
:10087000DF90CF900895CF93DF931F92CDB7DEB76F
:1008800069832091CC022223F9F02091FB022032CF
:1008900058F021E030E0FC013383228390E080E0D7
:1008A0000F90DF91CF9108958091FC02E82FF0E046
:1008B000E353FD4F998190838F5F8093FC02809377
:1008C000FB0281E090E0ECCF61E0CE0101960E9456
:1008D0007E03F7CFCF92DF92EF92FF920F931F9399
:1008E000CF93DF93FC01C48121E02093CC02C0931D
:1008F000ED021092FC021092FB028385682B8CE9BA
:1009000093E00E943B04D091FB02D13208F092C0E8
:100910000E9426036B017C018091C602811165C093
:1009200082E08093C60281E08093C5028FEF8093BE
:10093000C4021092C302D093C202ADECB2E0E2EA6C
:10094000F2E080E0D81385C01092A1028091A1024C
:10095000CC0FC82BC093A1028091A002813009F076
:100960007CC01092A0020E9426036B017C01809142
:10097000A1028093BB008091C8029091C902A0910E
:10098000CA02B091CB02892B8A2B8B2B99F00E9443
:1009900026030091C8021091C9022091CA02309129
:1009A000CB026C197D098E099F09061717072807C6
:1009B0003907E0F18091BC0083FDD9CF85EC8093AD
:1009C000BC000E9426036B017C018091C60282302C
:1009D00009F445C08091C4028F3F61F18091C40247
:1009E000803241F18091C40225C08091C80290916B
:1009F000C902A091CA02B091CB02892B8A2B8B2B02
:100A000009F48ACF0E9426030091C8021091C902FE
:100A10002091CA023091CB026C197D098E099F0981
:100A2000061717072807390708F076CF8091C70205
:100A30000E94C3031092FC021092FB021092CC029F
:100A4000DF91CF911F910F91FF90EF90DF90CF90AA
:100A500008959D9191938F5F75CF85EEB0CF809172
:100A6000C8029091C902A091CA02B091CB02892B11
:100A70008A2B8B2B09F4A9CF0E9426030091C80270
:100A80001091C9022091CA023091CB026C197D09E4
:100A90008E099F09061717072807390708F095CF11
:100AA000C5CF90E080E008950F931F93CF938C0102
:100AB000C62F0E946A046C2F6460C8010E946A04F9
:100AC0006C2F6B7FC8010E946A0483EC90E0019751
:100AD000F1F7CF911F910F9108950F931F93CF932B
:100AE000DF938C01D62FC42F607F642B0E945405A6
:100AF00080E1D89FB00111246C2BC801DF91CF9108
:100B00001F910F910C94540541E00E946D0581E006
:100B100090E0089585ED8093BC008091C80290918B
:100B2000C902A091CA02B091CB020796A11DB11DC6
:100B300023E0B695A795979587952A95D1F72091AB
:100B4000BC0024FD03C01092C60208954091C80263
:100B50005091C9026091CA027091CB02452B462B7D
:100B6000472B69F30097A105B10541F025E32A95CC
:100B7000F1F700000197A109B109E1CF8091C70207
:100B80000C94C3031F920F920FB60F9211240BB651
:100B90000F922F933F934F935F936F937F938F9316
:100BA0009F93AF93BF93EF93FF938FEF92E00E94D9
:100BB000DA01FF91EF91BF91AF919F918F917F915A
:100BC0006F915F914F913F912F910F900BBE0F90BE
:100BD0000FBE0F901F9018951F920F920FB60F9295
:100BE00011240BB60F922F938F939F93EF93FF9344
:100BF000E0910F03F09110038081E0911503F091D3
:100C0000160382FD1DC09081809118038F5F8F7342
:100C100020911903821741F0E0911803F0E0E150B0
:100C2000FD4F958F80931803FF91EF919F918F91C6
:100C30002F910F900BBE0F900FBE0F901F90189525
:100C40008081F2CF1F920F920FB60F9211242F9333
:100C50003F938F939F93AF93BF938091EF029091B7
:100C6000F002A091F102B091F2023091EE0223E085
:100C7000230F2D3758F50196A11DB11D2093EE02CB
:100C80008093EF029093F002A093F102B093F202EE
:100C90008091F3029091F402A091F502B091F602D6
:100CA0000196A11DB11D8093F3029093F402A093CD
:100CB000F502B093F602BF91AF919F918F913F9152
:100CC0002F910F900FBE0F901F90189526E8230FBD
:100CD0000296A11DB11DD2CF1F920F920FB60F9297
:100CE00011240BB60F922F933F934F935F936F9303
:100CF0007F938F939F93AF93BF93EF93FF938091D5
:100D0000B900887F803609F44DC008F040C08832B1
:100D100009F4A9C028F5803109F49DC0C8F48823DE
:100D200009F4FBC0883009F496C0FF91EF91BF91A0
:100D3000AF919F918F917F916F915F914F913F9173
:100D40002F910F900BBE0F900FBE0F901F90189514
:100D5000883109F488C0803241F78093C40214C0FE
:100D6000803409F49DC040F48033B9F38833E9F648
:100D70008093C40285ECB0C0803509F485C0883505
:100D800009F496C0883489F60E948A05CECF883946
:100D900009F48CC038F5883729F050F4883611F002
:100DA000803719F683E08093C60210929F0257C0E5
:100DB000883809F47BC0803919F0803809F0B5CF44
:100DC00080919F02803208F071C0E0919F0281E023
:100DD0008E0F80939F028091BB00F0E0E158FD4FA1
:100DE00080833DC0803B39F0E0F4803A09F479C05B
:100DF000883A09F09ACF84E08093C60210927E026E
:100E000010927D02E091F902F091FA021995809119
:100E10007D0281110FC081E080937D0210925D02FE
:100E200009C0803C09F4A6CF883C09F4A3CF883BD5
:100E300009F07BCFE0917E0281E08E0F80937E02ED
:100E4000F0E0E35AFD4F80818093BB0090917E02D9
:100E500080917D0229C08091A1028093BB0085EC26
:100E60008093BC0062CF9091C3028091C202981718
:100E700058F5E091C30281E08E0F8093C302F0E049
:100E8000EE55FD4F8081E9CFE091C30281E08E0FE6
:100E90008093C3028091BB00F0E0EE55FD4F80834C
:100EA0009091C3028091C2029817C8F285E8D8CF0A
:100EB000E091C30281E08E0F8093C3028091BB005A
:100EC000F0E0EE55FD4F80838091C50281115CCF2B
:100ED00081E08093A00284EA8093BC001092C60255
:100EE00024CF85EC8093BC001092C60280919F02B3
:100EF000803230F4E0919F02F0E0E158FD4F108223
:100F000060919F0270E0E091F702F091F8028FE7A4
:100F100092E0199510929F0208CF1092C40234CF2C
:100F2000EFEFF2E01382128288EE93E0A0E0B0E0EF
:100F300084839583A683B7832AE032E031832083BC
:100F400025EC30E03587248724EC30E0378726878E
:100F500020EC30E0318B208B21EC30E0338B228B86
:100F600022EC30E0358B248B26EC30E0378B268B5F
:100F7000118E128E138E148EECE9F3E0138212821E
:100F800084839583A683B7838CE192E091838083E9
:100F9000E8EAF3E0138212828EE292E0918380838A
:100FA00087E2848380E1818782E0828713860895C7
:100FB000789484B5826084BD84B5816084BD85B534
:100FC000826085BD85B5816085BD80916E00816040
:100FD00080936E00109281008091810082608093E6
:100FE00081008091810081608093810080918000E8
:100FF0008160809380008091B10084608093B10013
:101000008091B00081608093B000809191008260F7
:1010100080939100809191008160809391008091F4
:1010200090008160809390008091A1008260809305
:10103000A1008091A10081608093A1008091A00017
:1010400081608093A00080912101826080932101C2
:101050008091210181608093210180912001816034
:101060008093200180917A00846080937A0080913F
:101070007A00826080937A0080917A008160809308
:101080007A0080917A00806880937A001092C10083
:1010900066E070E090E080E00E94750AEC01F12CBF
:1010A000E12C009741F0188266E372E00E945F0B2A
:1010B00085E0E82EF12CE0910F03F091100382E01F
:1010C0008083E0910B03F0910C031082E0910D03FB
:1010D000F0910E0380E1808310921703E0911303D7
:1010E000F091140386E08083E0911103F0911203E4
:1010F000808180618083E0911103F09112038081EF
:1011000088608083E0911103F091120380818068F0
:101110008083E0911103F091120380818F7D8083A1
:101120001092FE021092FD021092FC021092FB023D
:101130000E94A50384E691E09093FA028093F9025D
:1011400085E691E09093F8028093F7021092AD0348
:101150008091B203823018F098E09093AD038093B1
:10116000B00362E370E080E090E00E944B03609186
:10117000B30388EA93E00E946A0468EE73E080E0BB
:1011800090E00E944B0360E388EA93E00E945405DC
:101190000BE416E4C8010197F1F760E388EA93E0F5
:1011A0000E945405C8010197F1F760E388EA93E0D3
:1011B0000E94540583E592E00197F1F760E288EA26
:1011C00093E00E9454056091AD03606240E088EABC
:1011D00093E00E946D0584E08093AE0340E06CE0F4
:1011E00088EA93E00E946D0540E061E088EA93E0C0
:1011F0000E946D050BE31FE1C8010197F1F782E042
:101200008093AF0340E066E088EA93E00E946D05BA
:1012100040E062E088EA93E00E946D05C801019712
:10122000F1F740E061E088EA93E00E946D05C801B3
:101230000197F1F788E08093B30360E088EA93E0D8
:101240000E946A0440E062E888EA93E00E946D052B
:10125000A701BE0188EA93E00E946601209719F079
:10126000CE010E94EC096091AE03862F84608093CA
:10127000AE036C6040E088EA93E00E946D0568EE82
:1012800073E080E090E00E944B030E946902EBCF84
:10129000EE0FFF1F881F8BBF0790F691E02D19946A
:1012A0000F931F93CF93DF938230910510F482E068
:1012B00090E0E091B603F091B70330E020E0B0E0B9
:1012C000A0E0309799F42115310509F44AC0281B94
:1012D000390B24303105D8F58A819B816115710560
:1012E00089F1FB0193838283FE0111C0408151810A
:1012F0000281138148175907E0F04817590799F4FC
:10130000109761F012960C93129713961C933296D5
:10131000CF01DF91CF911F910F9108950093B603F4
:101320001093B703F4CF2115310551F0421753073D
:1013300038F0A901DB019A01BD01DF01F801C1CF3D
:10134000EF01F9CF9093B7038093B603CDCFFE01A1
:10135000E20FF31F8193919322503109398328833F
:10136000D7CF2091B4033091B503232B41F42091C2
:101370000202309103023093B5032093B40320910D
:101380000002309101022115310541F42DB73EB71D
:101390004091040250910502241B350BE091B403E7
:1013A000F091B503E217F307A0F42E1B3F0B2817AB
:1013B000390778F0AC014E5F5F4F2417350748F0CE
:1013C0004E0F5F1F5093B5034093B40381939193E5
:1013D0009FCFF0E0E0E09CCFCF93DF930097E9F060
:1013E000FC01329713821282A091B603B091B70329
:1013F000ED0130E020E01097A1F420813181820FCF
:10140000931F2091B4033091B5032817390709F0D1
:1014100061C0F093B503E093B403DF91CF910895D9
:10142000EA01CE17DF07E8F54A815B819E0141158D
:101430005105B1F7E901FB83EA8349915991C40F42
:10144000D51FEC17FD0761F4808191810296840F0E
:10145000951FE90199838883828193819B838A8385
:10146000F0E0E0E012968D919C9113970097B9F50A
:101470002D913C911197CD010296820F931F2091DF
:10148000B4033091B5032817390739F6309751F571
:101490001092B7031092B603B093B503A093B403B0
:1014A000BCCFD383C28340815181840F951FC8175D
:1014B000D90761F44E5F5F4F88819981480F591FAA
:1014C000518340838A819B819383828321153105D7
:1014D00009F0B0CFF093B703E093B6039ECFFD01C0
:1014E000DC01C0CF13821282D7CF4F925F926F92EE
:1014F0007F928F929F92AF92BF92CF92DF92EF92A4
:10150000FF920F931F93CF93DF938C01009799F471
:10151000CB01DF91CF911F910F91FF90EF90DF9062
:10152000CF90BF90AF909F908F907F906F905F9083
:101530004F900C945009FC01E60FF71F9C012250BC
:101540003109E217F30708F4AEC0D901CD91DC915F
:101550001197C617D70720F1C530D10578F0CE0115
:1015600004978617970750F0C61BD70B2297C19395
:10157000D1936D937C93CF010E94EC09C801DF9158
:10158000CF911F910F91FF90EF90DF90CF90BF9080
:10159000AF909F908F907F906F905F904F90089545
:1015A0005B01AC1ABD0A4C018C0E9D1EA091B603C6
:1015B000B091B703512C412CF12CE12C109731F54F
:1015C0008091B4039091B5038815990509F05CC02A
:1015D0004616570608F058C080910002909101020B
:1015E000009741F48DB79EB74091040250910502D7
:1015F000841B950BE817F90708F055C0F093B50365
:10160000E093B403F90171836083B8CF8D919C910D
:10161000119712966C90129713967C901397A815B9
:10162000B90559F56C0142E0C40ED11CCA14DB04A3
:1016300020F1AC014A195B09DA011296159780F086
:101640006282738251834083D9016D937C93E1144C
:10165000F10471F0D7011396FC93EE9312978ECF9D
:1016600022968C0F9D1FF90191838083F301EFCFA8
:10167000F093B703E093B60381CF4816590608F4F8
:101680002C017D01D3019ACFCB010E9450097C012E
:10169000009749F0AE01B8010E94560BC8010E94A4
:1016A000EC0987016BCF10E000E068CFFB01DC01A3
:1016B00002C001900D9241505040D8F70895FB01AF
:1016C000DC0101900D920020E1F70895F894FFCF1E
:1016D0000000B803800000000000FC0166019301D7
:1016E0004902C401A201B601000000003B040E043F
:1016F0005105E4030704F403E5030000000084053A
:0C170000660151057D0348656C6C6F00AC
:00000001FF
